{
	"contracts/belajar/belajar7.sol": {
		"simpleWallet": {
			"abi": [
				{
					"inputs": [],
					"stateMutability": "nonpayable",
					"type": "constructor"
				},
				{
					"anonymous": false,
					"inputs": [
						{
							"indexed": true,
							"internalType": "address",
							"name": "user",
							"type": "address"
						},
						{
							"indexed": false,
							"internalType": "uint256",
							"name": "amount",
							"type": "uint256"
						}
					],
					"name": "Deposit",
					"type": "event"
				},
				{
					"anonymous": false,
					"inputs": [
						{
							"indexed": true,
							"internalType": "address",
							"name": "from",
							"type": "address"
						},
						{
							"indexed": true,
							"internalType": "address",
							"name": "to",
							"type": "address"
						},
						{
							"indexed": false,
							"internalType": "uint256",
							"name": "amount",
							"type": "uint256"
						}
					],
					"name": "Transfer",
					"type": "event"
				},
				{
					"anonymous": false,
					"inputs": [
						{
							"indexed": true,
							"internalType": "address",
							"name": "user",
							"type": "address"
						},
						{
							"indexed": false,
							"internalType": "uint256",
							"name": "amount",
							"type": "uint256"
						}
					],
					"name": "Withdraw",
					"type": "event"
				},
				{
					"stateMutability": "payable",
					"type": "fallback"
				},
				{
					"inputs": [],
					"name": "deposit",
					"outputs": [],
					"stateMutability": "payable",
					"type": "function"
				},
				{
					"inputs": [
						{
							"internalType": "address",
							"name": "user",
							"type": "address"
						}
					],
					"name": "getBalance",
					"outputs": [
						{
							"internalType": "uint256",
							"name": "",
							"type": "uint256"
						}
					],
					"stateMutability": "view",
					"type": "function"
				},
				{
					"inputs": [],
					"name": "getMyBalance",
					"outputs": [
						{
							"internalType": "uint256",
							"name": "",
							"type": "uint256"
						}
					],
					"stateMutability": "view",
					"type": "function"
				},
				{
					"inputs": [
						{
							"internalType": "address",
							"name": "to",
							"type": "address"
						},
						{
							"internalType": "uint256",
							"name": "amount",
							"type": "uint256"
						}
					],
					"name": "transfer",
					"outputs": [],
					"stateMutability": "nonpayable",
					"type": "function"
				},
				{
					"inputs": [
						{
							"internalType": "uint256",
							"name": "amount",
							"type": "uint256"
						}
					],
					"name": "withdraw",
					"outputs": [],
					"stateMutability": "nonpayable",
					"type": "function"
				},
				{
					"stateMutability": "payable",
					"type": "receive"
				}
			],
			"devdoc": {
				"kind": "dev",
				"methods": {},
				"version": 1
			},
			"evm": {
				"assembly": "    /* \"contracts/belajar/belajar7.sol\":70:1698  contract simpleWallet {... */\n  mstore(0x40, 0x80)\n    /* \"contracts/belajar/belajar7.sol\":131:182  constructor() {... */\n  callvalue\n  dup1\n  iszero\n  tag_1\n  jumpi\n  revert(0x00, 0x00)\ntag_1:\n  pop\n    /* \"contracts/belajar/belajar7.sol\":164:174  msg.sender */\n  caller\n    /* \"contracts/belajar/belajar7.sol\":156:161  owner */\n  0x00\n  0x00\n    /* \"contracts/belajar/belajar7.sol\":156:174  owner = msg.sender */\n  0x0100\n  exp\n  dup2\n  sload\n  dup2\n  0xffffffffffffffffffffffffffffffffffffffff\n  mul\n  not\n  and\n  swap1\n  dup4\n  0xffffffffffffffffffffffffffffffffffffffff\n  and\n  mul\n  or\n  swap1\n  sstore\n  pop\n    /* \"contracts/belajar/belajar7.sol\":70:1698  contract simpleWallet {... */\n  dataSize(sub_0)\n  dup1\n  dataOffset(sub_0)\n  0x00\n  codecopy\n  0x00\n  return\nstop\n\nsub_0: assembly {\n        /* \"contracts/belajar/belajar7.sol\":70:1698  contract simpleWallet {... */\n      mstore(0x40, 0x80)\n      jumpi(tag_1, lt(calldatasize, 0x04))\n      shr(0xe0, calldataload(0x00))\n      dup1\n      0x2e1a7d4d\n      eq\n      tag_3\n      jumpi\n      dup1\n      0x4c738909\n      eq\n      tag_4\n      jumpi\n      dup1\n      0xa9059cbb\n      eq\n      tag_5\n      jumpi\n      dup1\n      0xd0e30db0\n      eq\n      tag_6\n      jumpi\n      dup1\n      0xf8b2cb4f\n      eq\n      tag_7\n      jumpi\n      jump(tag_2)\n    tag_1:\n      jumpi(tag_2, calldatasize)\n        /* \"contracts/belajar/belajar7.sol\":742:752  _deposit() */\n      tag_10\n        /* \"contracts/belajar/belajar7.sol\":742:750  _deposit */\n      tag_11\n        /* \"contracts/belajar/belajar7.sol\":742:752  _deposit() */\n      jump\t// in\n    tag_10:\n        /* \"contracts/belajar/belajar7.sol\":70:1698  contract simpleWallet {... */\n      stop\n    tag_2:\n        /* \"contracts/belajar/belajar7.sol\":809:819  _deposit() */\n      tag_14\n        /* \"contracts/belajar/belajar7.sol\":809:817  _deposit */\n      tag_11\n        /* \"contracts/belajar/belajar7.sol\":809:819  _deposit() */\n      jump\t// in\n    tag_14:\n        /* \"contracts/belajar/belajar7.sol\":70:1698  contract simpleWallet {... */\n      stop\n        /* \"contracts/belajar/belajar7.sol\":1363:1687  function withdraw(uint amount) external {... */\n    tag_3:\n      callvalue\n      dup1\n      iszero\n      tag_15\n      jumpi\n      revert(0x00, 0x00)\n    tag_15:\n      pop\n      tag_16\n      0x04\n      dup1\n      calldatasize\n      sub\n      dup2\n      add\n      swap1\n      tag_17\n      swap2\n      swap1\n      tag_18\n      jump\t// in\n    tag_17:\n      tag_19\n      jump\t// in\n    tag_16:\n      stop\n        /* \"contracts/belajar/belajar7.sol\":943:1041  function getMyBalance() external view returns(uint) {... */\n    tag_4:\n      callvalue\n      dup1\n      iszero\n      tag_20\n      jumpi\n      revert(0x00, 0x00)\n    tag_20:\n      pop\n      tag_21\n      tag_22\n      jump\t// in\n    tag_21:\n      mload(0x40)\n      tag_23\n      swap2\n      swap1\n      tag_24\n      jump\t// in\n    tag_23:\n      mload(0x40)\n      dup1\n      swap2\n      sub\n      swap1\n      return\n        /* \"contracts/belajar/belajar7.sol\":1049:1355  function transfer(address to, uint amount) external  {... */\n    tag_5:\n      callvalue\n      dup1\n      iszero\n      tag_25\n      jumpi\n      revert(0x00, 0x00)\n    tag_25:\n      pop\n      tag_26\n      0x04\n      dup1\n      calldatasize\n      sub\n      dup2\n      add\n      swap1\n      tag_27\n      swap2\n      swap1\n      tag_28\n      jump\t// in\n    tag_27:\n      tag_29\n      jump\t// in\n    tag_26:\n      stop\n        /* \"contracts/belajar/belajar7.sol\":631:696  function deposit() external payable {... */\n    tag_6:\n      tag_30\n      tag_31\n      jump\t// in\n    tag_30:\n      stop\n        /* \"contracts/belajar/belajar7.sol\":835:937  function getBalance(address user) external view returns(uint) {... */\n    tag_7:\n      callvalue\n      dup1\n      iszero\n      tag_32\n      jumpi\n      revert(0x00, 0x00)\n    tag_32:\n      pop\n      tag_33\n      0x04\n      dup1\n      calldatasize\n      sub\n      dup2\n      add\n      swap1\n      tag_34\n      swap2\n      swap1\n      tag_35\n      jump\t// in\n    tag_34:\n      tag_36\n      jump\t// in\n    tag_33:\n      mload(0x40)\n      tag_37\n      swap2\n      swap1\n      tag_24\n      jump\t// in\n    tag_37:\n      mload(0x40)\n      dup1\n      swap2\n      sub\n      swap1\n      return\n        /* \"contracts/belajar/belajar7.sol\":430:623  function _deposit() private {... */\n    tag_11:\n        /* \"contracts/belajar/belajar7.sol\":489:490  0 */\n      0x00\n        /* \"contracts/belajar/belajar7.sol\":477:486  msg.value */\n      callvalue\n        /* \"contracts/belajar/belajar7.sol\":477:490  msg.value > 0 */\n      gt\n        /* \"contracts/belajar/belajar7.sol\":469:525  require(msg.value > 0, \"Jumlah Depo Harus Lebih Dari 0\") */\n      tag_39\n      jumpi\n      mload(0x40)\n      0x08c379a000000000000000000000000000000000000000000000000000000000\n      dup2\n      mstore\n      0x04\n      add\n      tag_40\n      swap1\n      tag_41\n      jump\t// in\n    tag_40:\n      mload(0x40)\n      dup1\n      swap2\n      sub\n      swap1\n      revert\n    tag_39:\n        /* \"contracts/belajar/belajar7.sol\":560:569  msg.value */\n      callvalue\n        /* \"contracts/belajar/belajar7.sol\":536:544  balances */\n      0x01\n        /* \"contracts/belajar/belajar7.sol\":536:556  balances[msg.sender] */\n      0x00\n        /* \"contracts/belajar/belajar7.sol\":545:555  msg.sender */\n      caller\n        /* \"contracts/belajar/belajar7.sol\":536:556  balances[msg.sender] */\n      0xffffffffffffffffffffffffffffffffffffffff\n      and\n      0xffffffffffffffffffffffffffffffffffffffff\n      and\n      dup2\n      mstore\n      0x20\n      add\n      swap1\n      dup2\n      mstore\n      0x20\n      add\n      0x00\n      keccak256\n      0x00\n        /* \"contracts/belajar/belajar7.sol\":536:569  balances[msg.sender] += msg.value */\n      dup3\n      dup3\n      sload\n      tag_42\n      swap2\n      swap1\n      tag_43\n      jump\t// in\n    tag_42:\n      swap3\n      pop\n      pop\n      dup2\n      swap1\n      sstore\n      pop\n        /* \"contracts/belajar/belajar7.sol\":593:603  msg.sender */\n      caller\n        /* \"contracts/belajar/belajar7.sol\":585:615  Deposit(msg.sender, msg.value) */\n      0xffffffffffffffffffffffffffffffffffffffff\n      and\n      0xe1fffcc4923d04b559f4d29a8bfc6cda04eb5b0d3c460751c2402c5c5cc9109c\n        /* \"contracts/belajar/belajar7.sol\":605:614  msg.value */\n      callvalue\n        /* \"contracts/belajar/belajar7.sol\":585:615  Deposit(msg.sender, msg.value) */\n      mload(0x40)\n      tag_44\n      swap2\n      swap1\n      tag_24\n      jump\t// in\n    tag_44:\n      mload(0x40)\n      dup1\n      swap2\n      sub\n      swap1\n      log2\n        /* \"contracts/belajar/belajar7.sol\":430:623  function _deposit() private {... */\n      jump\t// out\n        /* \"contracts/belajar/belajar7.sol\":1363:1687  function withdraw(uint amount) external {... */\n    tag_19:\n        /* \"contracts/belajar/belajar7.sol\":1431:1432  0 */\n      0x00\n        /* \"contracts/belajar/belajar7.sol\":1422:1428  amount */\n      dup2\n        /* \"contracts/belajar/belajar7.sol\":1422:1432  amount > 0 */\n      gt\n        /* \"contracts/belajar/belajar7.sol\":1414:1459  require(amount > 0, \"Penarikan tidak bisa 0\") */\n      tag_46\n      jumpi\n      mload(0x40)\n      0x08c379a000000000000000000000000000000000000000000000000000000000\n      dup2\n      mstore\n      0x04\n      add\n      tag_47\n      swap1\n      tag_48\n      jump\t// in\n    tag_47:\n      mload(0x40)\n      dup1\n      swap2\n      sub\n      swap1\n      revert\n    tag_46:\n        /* \"contracts/belajar/belajar7.sol\":1502:1508  amount */\n      dup1\n        /* \"contracts/belajar/belajar7.sol\":1478:1486  balances */\n      0x01\n        /* \"contracts/belajar/belajar7.sol\":1478:1498  balances[msg.sender] */\n      0x00\n        /* \"contracts/belajar/belajar7.sol\":1487:1497  msg.sender */\n      caller\n        /* \"contracts/belajar/belajar7.sol\":1478:1498  balances[msg.sender] */\n      0xffffffffffffffffffffffffffffffffffffffff\n      and\n      0xffffffffffffffffffffffffffffffffffffffff\n      and\n      dup2\n      mstore\n      0x20\n      add\n      swap1\n      dup2\n      mstore\n      0x20\n      add\n      0x00\n      keccak256\n      sload\n        /* \"contracts/belajar/belajar7.sol\":1478:1508  balances[msg.sender] >= amount */\n      lt\n      iszero\n        /* \"contracts/belajar/belajar7.sol\":1470:1530  require(balances[msg.sender] >= amount, \"Saldo tidak cukup\") */\n      tag_49\n      jumpi\n      mload(0x40)\n      0x08c379a000000000000000000000000000000000000000000000000000000000\n      dup2\n      mstore\n      0x04\n      add\n      tag_50\n      swap1\n      tag_51\n      jump\t// in\n    tag_50:\n      mload(0x40)\n      dup1\n      swap2\n      sub\n      swap1\n      revert\n    tag_49:\n        /* \"contracts/belajar/belajar7.sol\":1567:1573  amount */\n      dup1\n        /* \"contracts/belajar/belajar7.sol\":1543:1551  balances */\n      0x01\n        /* \"contracts/belajar/belajar7.sol\":1543:1563  balances[msg.sender] */\n      0x00\n        /* \"contracts/belajar/belajar7.sol\":1552:1562  msg.sender */\n      caller\n        /* \"contracts/belajar/belajar7.sol\":1543:1563  balances[msg.sender] */\n      0xffffffffffffffffffffffffffffffffffffffff\n      and\n      0xffffffffffffffffffffffffffffffffffffffff\n      and\n      dup2\n      mstore\n      0x20\n      add\n      swap1\n      dup2\n      mstore\n      0x20\n      add\n      0x00\n      keccak256\n      0x00\n        /* \"contracts/belajar/belajar7.sol\":1543:1573  balances[msg.sender] -= amount */\n      dup3\n      dup3\n      sload\n      tag_52\n      swap2\n      swap1\n      tag_53\n      jump\t// in\n    tag_52:\n      swap3\n      pop\n      pop\n      dup2\n      swap1\n      sstore\n      pop\n        /* \"contracts/belajar/belajar7.sol\":1585:1596  bool succes */\n      0x00\n        /* \"contracts/belajar/belajar7.sol\":1601:1611  msg.sender */\n      caller\n        /* \"contracts/belajar/belajar7.sol\":1601:1616  msg.sender.call */\n      0xffffffffffffffffffffffffffffffffffffffff\n      and\n        /* \"contracts/belajar/belajar7.sol\":1624:1630  amount */\n      dup3\n        /* \"contracts/belajar/belajar7.sol\":1601:1635  msg.sender.call{value: amount}(\"\") */\n      mload(0x40)\n      tag_54\n      swap1\n      tag_55\n      jump\t// in\n    tag_54:\n      0x00\n      mload(0x40)\n      dup1\n      dup4\n      sub\n      dup2\n      dup6\n      dup8\n      gas\n      call\n      swap3\n      pop\n      pop\n      pop\n      returndatasize\n      dup1\n      0x00\n      dup2\n      eq\n      tag_58\n      jumpi\n      mload(0x40)\n      swap2\n      pop\n      and(add(returndatasize, 0x3f), not(0x1f))\n      dup3\n      add\n      0x40\n      mstore\n      returndatasize\n      dup3\n      mstore\n      returndatasize\n      0x00\n      0x20\n      dup5\n      add\n      returndatacopy\n      jump(tag_57)\n    tag_58:\n      0x60\n      swap2\n      pop\n    tag_57:\n      pop\n        /* \"contracts/belajar/belajar7.sol\":1584:1635  (bool succes,) = msg.sender.call{value: amount}(\"\") */\n      pop\n      swap1\n      pop\n        /* \"contracts/belajar/belajar7.sol\":1654:1660  succes */\n      dup1\n        /* \"contracts/belajar/belajar7.sol\":1646:1679  require(succes, \"transfer gagal\") */\n      tag_59\n      jumpi\n      mload(0x40)\n      0x08c379a000000000000000000000000000000000000000000000000000000000\n      dup2\n      mstore\n      0x04\n      add\n      tag_60\n      swap1\n      tag_61\n      jump\t// in\n    tag_60:\n      mload(0x40)\n      dup1\n      swap2\n      sub\n      swap1\n      revert\n    tag_59:\n        /* \"contracts/belajar/belajar7.sol\":1403:1687  {... */\n      pop\n        /* \"contracts/belajar/belajar7.sol\":1363:1687  function withdraw(uint amount) external {... */\n      pop\n      jump\t// out\n        /* \"contracts/belajar/belajar7.sol\":943:1041  function getMyBalance() external view returns(uint) {... */\n    tag_22:\n        /* \"contracts/belajar/belajar7.sol\":989:993  uint */\n      0x00\n        /* \"contracts/belajar/belajar7.sol\":1013:1021  balances */\n      0x01\n        /* \"contracts/belajar/belajar7.sol\":1013:1033  balances[msg.sender] */\n      0x00\n        /* \"contracts/belajar/belajar7.sol\":1022:1032  msg.sender */\n      caller\n        /* \"contracts/belajar/belajar7.sol\":1013:1033  balances[msg.sender] */\n      0xffffffffffffffffffffffffffffffffffffffff\n      and\n      0xffffffffffffffffffffffffffffffffffffffff\n      and\n      dup2\n      mstore\n      0x20\n      add\n      swap1\n      dup2\n      mstore\n      0x20\n      add\n      0x00\n      keccak256\n      sload\n        /* \"contracts/belajar/belajar7.sol\":1006:1033  return balances[msg.sender] */\n      swap1\n      pop\n        /* \"contracts/belajar/belajar7.sol\":943:1041  function getMyBalance() external view returns(uint) {... */\n      swap1\n      jump\t// out\n        /* \"contracts/belajar/belajar7.sol\":1049:1355  function transfer(address to, uint amount) external  {... */\n    tag_29:\n        /* \"contracts/belajar/belajar7.sol\":1145:1151  amount */\n      dup1\n        /* \"contracts/belajar/belajar7.sol\":1121:1129  balances */\n      0x01\n        /* \"contracts/belajar/belajar7.sol\":1121:1141  balances[msg.sender] */\n      0x00\n        /* \"contracts/belajar/belajar7.sol\":1130:1140  msg.sender */\n      caller\n        /* \"contracts/belajar/belajar7.sol\":1121:1141  balances[msg.sender] */\n      0xffffffffffffffffffffffffffffffffffffffff\n      and\n      0xffffffffffffffffffffffffffffffffffffffff\n      and\n      dup2\n      mstore\n      0x20\n      add\n      swap1\n      dup2\n      mstore\n      0x20\n      add\n      0x00\n      keccak256\n      sload\n        /* \"contracts/belajar/belajar7.sol\":1121:1151  balances[msg.sender] >= amount */\n      lt\n      iszero\n        /* \"contracts/belajar/belajar7.sol\":1113:1173  require(balances[msg.sender] >= amount, \"saldo tidak cukup\") */\n      tag_64\n      jumpi\n      mload(0x40)\n      0x08c379a000000000000000000000000000000000000000000000000000000000\n      dup2\n      mstore\n      0x04\n      add\n      tag_65\n      swap1\n      tag_66\n      jump\t// in\n    tag_65:\n      mload(0x40)\n      dup1\n      swap2\n      sub\n      swap1\n      revert\n    tag_64:\n        /* \"contracts/belajar/belajar7.sol\":1206:1207  0 */\n      0x00\n        /* \"contracts/belajar/belajar7.sol\":1192:1208  to != address(0) */\n      0xffffffffffffffffffffffffffffffffffffffff\n      and\n        /* \"contracts/belajar/belajar7.sol\":1192:1194  to */\n      dup3\n        /* \"contracts/belajar/belajar7.sol\":1192:1208  to != address(0) */\n      0xffffffffffffffffffffffffffffffffffffffff\n      and\n      sub\n        /* \"contracts/belajar/belajar7.sol\":1184:1225  require(to != address(0), \"address zero\") */\n      tag_67\n      jumpi\n      mload(0x40)\n      0x08c379a000000000000000000000000000000000000000000000000000000000\n      dup2\n      mstore\n      0x04\n      add\n      tag_68\n      swap1\n      tag_69\n      jump\t// in\n    tag_68:\n      mload(0x40)\n      dup1\n      swap2\n      sub\n      swap1\n      revert\n    tag_67:\n        /* \"contracts/belajar/belajar7.sol\":1260:1266  amount */\n      dup1\n        /* \"contracts/belajar/belajar7.sol\":1236:1244  balances */\n      0x01\n        /* \"contracts/belajar/belajar7.sol\":1236:1256  balances[msg.sender] */\n      0x00\n        /* \"contracts/belajar/belajar7.sol\":1245:1255  msg.sender */\n      caller\n        /* \"contracts/belajar/belajar7.sol\":1236:1256  balances[msg.sender] */\n      0xffffffffffffffffffffffffffffffffffffffff\n      and\n      0xffffffffffffffffffffffffffffffffffffffff\n      and\n      dup2\n      mstore\n      0x20\n      add\n      swap1\n      dup2\n      mstore\n      0x20\n      add\n      0x00\n      keccak256\n      0x00\n        /* \"contracts/belajar/belajar7.sol\":1236:1266  balances[msg.sender] -= amount */\n      dup3\n      dup3\n      sload\n      tag_70\n      swap2\n      swap1\n      tag_53\n      jump\t// in\n    tag_70:\n      swap3\n      pop\n      pop\n      dup2\n      swap1\n      sstore\n      pop\n        /* \"contracts/belajar/belajar7.sol\":1293:1299  amount */\n      dup1\n        /* \"contracts/belajar/belajar7.sol\":1277:1285  balances */\n      0x01\n        /* \"contracts/belajar/belajar7.sol\":1277:1289  balances[to] */\n      0x00\n        /* \"contracts/belajar/belajar7.sol\":1286:1288  to */\n      dup5\n        /* \"contracts/belajar/belajar7.sol\":1277:1289  balances[to] */\n      0xffffffffffffffffffffffffffffffffffffffff\n      and\n      0xffffffffffffffffffffffffffffffffffffffff\n      and\n      dup2\n      mstore\n      0x20\n      add\n      swap1\n      dup2\n      mstore\n      0x20\n      add\n      0x00\n      keccak256\n      0x00\n        /* \"contracts/belajar/belajar7.sol\":1277:1299  balances[to] += amount */\n      dup3\n      dup3\n      sload\n      tag_71\n      swap2\n      swap1\n      tag_43\n      jump\t// in\n    tag_71:\n      swap3\n      pop\n      pop\n      dup2\n      swap1\n      sstore\n      pop\n        /* \"contracts/belajar/belajar7.sol\":1336:1338  to */\n      dup2\n        /* \"contracts/belajar/belajar7.sol\":1315:1347  Transfer(msg.sender, to, amount) */\n      0xffffffffffffffffffffffffffffffffffffffff\n      and\n        /* \"contracts/belajar/belajar7.sol\":1324:1334  msg.sender */\n      caller\n        /* \"contracts/belajar/belajar7.sol\":1315:1347  Transfer(msg.sender, to, amount) */\n      0xffffffffffffffffffffffffffffffffffffffff\n      and\n      0xddf252ad1be2c89b69c2b068fc378daa952ba7f163c4a11628f55a4df523b3ef\n        /* \"contracts/belajar/belajar7.sol\":1340:1346  amount */\n      dup4\n        /* \"contracts/belajar/belajar7.sol\":1315:1347  Transfer(msg.sender, to, amount) */\n      mload(0x40)\n      tag_72\n      swap2\n      swap1\n      tag_24\n      jump\t// in\n    tag_72:\n      mload(0x40)\n      dup1\n      swap2\n      sub\n      swap1\n      log3\n        /* \"contracts/belajar/belajar7.sol\":1049:1355  function transfer(address to, uint amount) external  {... */\n      pop\n      pop\n      jump\t// out\n        /* \"contracts/belajar/belajar7.sol\":631:696  function deposit() external payable {... */\n    tag_31:\n        /* \"contracts/belajar/belajar7.sol\":678:688  _deposit() */\n      tag_74\n        /* \"contracts/belajar/belajar7.sol\":678:686  _deposit */\n      tag_11\n        /* \"contracts/belajar/belajar7.sol\":678:688  _deposit() */\n      jump\t// in\n    tag_74:\n        /* \"contracts/belajar/belajar7.sol\":631:696  function deposit() external payable {... */\n      jump\t// out\n        /* \"contracts/belajar/belajar7.sol\":835:937  function getBalance(address user) external view returns(uint) {... */\n    tag_36:\n        /* \"contracts/belajar/belajar7.sol\":891:895  uint */\n      0x00\n        /* \"contracts/belajar/belajar7.sol\":915:923  balances */\n      0x01\n        /* \"contracts/belajar/belajar7.sol\":915:929  balances[user] */\n      0x00\n        /* \"contracts/belajar/belajar7.sol\":924:928  user */\n      dup4\n        /* \"contracts/belajar/belajar7.sol\":915:929  balances[user] */\n      0xffffffffffffffffffffffffffffffffffffffff\n      and\n      0xffffffffffffffffffffffffffffffffffffffff\n      and\n      dup2\n      mstore\n      0x20\n      add\n      swap1\n      dup2\n      mstore\n      0x20\n      add\n      0x00\n      keccak256\n      sload\n        /* \"contracts/belajar/belajar7.sol\":908:929  return balances[user] */\n      swap1\n      pop\n        /* \"contracts/belajar/belajar7.sol\":835:937  function getBalance(address user) external view returns(uint) {... */\n      swap2\n      swap1\n      pop\n      jump\t// out\n        /* \"#utility.yul\":88:205   */\n    tag_77:\n        /* \"#utility.yul\":197:198   */\n      0x00\n        /* \"#utility.yul\":194:195   */\n      0x00\n        /* \"#utility.yul\":187:199   */\n      revert\n        /* \"#utility.yul\":334:411   */\n    tag_79:\n        /* \"#utility.yul\":371:378   */\n      0x00\n        /* \"#utility.yul\":400:405   */\n      dup2\n        /* \"#utility.yul\":389:405   */\n      swap1\n      pop\n        /* \"#utility.yul\":334:411   */\n      swap2\n      swap1\n      pop\n      jump\t// out\n        /* \"#utility.yul\":417:539   */\n    tag_80:\n        /* \"#utility.yul\":490:514   */\n      tag_110\n        /* \"#utility.yul\":508:513   */\n      dup2\n        /* \"#utility.yul\":490:514   */\n      tag_79\n      jump\t// in\n    tag_110:\n        /* \"#utility.yul\":483:488   */\n      dup2\n        /* \"#utility.yul\":480:515   */\n      eq\n        /* \"#utility.yul\":470:533   */\n      tag_111\n      jumpi\n        /* \"#utility.yul\":529:530   */\n      0x00\n        /* \"#utility.yul\":526:527   */\n      0x00\n        /* \"#utility.yul\":519:531   */\n      revert\n        /* \"#utility.yul\":470:533   */\n    tag_111:\n        /* \"#utility.yul\":417:539   */\n      pop\n      jump\t// out\n        /* \"#utility.yul\":545:684   */\n    tag_81:\n        /* \"#utility.yul\":591:596   */\n      0x00\n        /* \"#utility.yul\":629:635   */\n      dup2\n        /* \"#utility.yul\":616:636   */\n      calldataload\n        /* \"#utility.yul\":607:636   */\n      swap1\n      pop\n        /* \"#utility.yul\":645:678   */\n      tag_113\n        /* \"#utility.yul\":672:677   */\n      dup2\n        /* \"#utility.yul\":645:678   */\n      tag_80\n      jump\t// in\n    tag_113:\n        /* \"#utility.yul\":545:684   */\n      swap3\n      swap2\n      pop\n      pop\n      jump\t// out\n        /* \"#utility.yul\":690:1019   */\n    tag_18:\n        /* \"#utility.yul\":749:755   */\n      0x00\n        /* \"#utility.yul\":798:800   */\n      0x20\n        /* \"#utility.yul\":786:795   */\n      dup3\n        /* \"#utility.yul\":777:784   */\n      dup5\n        /* \"#utility.yul\":773:796   */\n      sub\n        /* \"#utility.yul\":769:801   */\n      slt\n        /* \"#utility.yul\":766:885   */\n      iszero\n      tag_115\n      jumpi\n        /* \"#utility.yul\":804:883   */\n      tag_116\n      tag_77\n      jump\t// in\n    tag_116:\n        /* \"#utility.yul\":766:885   */\n    tag_115:\n        /* \"#utility.yul\":924:925   */\n      0x00\n        /* \"#utility.yul\":949:1002   */\n      tag_117\n        /* \"#utility.yul\":994:1001   */\n      dup5\n        /* \"#utility.yul\":985:991   */\n      dup3\n        /* \"#utility.yul\":974:983   */\n      dup6\n        /* \"#utility.yul\":970:992   */\n      add\n        /* \"#utility.yul\":949:1002   */\n      tag_81\n      jump\t// in\n    tag_117:\n        /* \"#utility.yul\":939:1002   */\n      swap2\n      pop\n        /* \"#utility.yul\":895:1012   */\n      pop\n        /* \"#utility.yul\":690:1019   */\n      swap3\n      swap2\n      pop\n      pop\n      jump\t// out\n        /* \"#utility.yul\":1025:1143   */\n    tag_82:\n        /* \"#utility.yul\":1112:1136   */\n      tag_119\n        /* \"#utility.yul\":1130:1135   */\n      dup2\n        /* \"#utility.yul\":1112:1136   */\n      tag_79\n      jump\t// in\n    tag_119:\n        /* \"#utility.yul\":1107:1110   */\n      dup3\n        /* \"#utility.yul\":1100:1137   */\n      mstore\n        /* \"#utility.yul\":1025:1143   */\n      pop\n      pop\n      jump\t// out\n        /* \"#utility.yul\":1149:1371   */\n    tag_24:\n        /* \"#utility.yul\":1242:1246   */\n      0x00\n        /* \"#utility.yul\":1280:1282   */\n      0x20\n        /* \"#utility.yul\":1269:1278   */\n      dup3\n        /* \"#utility.yul\":1265:1283   */\n      add\n        /* \"#utility.yul\":1257:1283   */\n      swap1\n      pop\n        /* \"#utility.yul\":1293:1364   */\n      tag_121\n        /* \"#utility.yul\":1361:1362   */\n      0x00\n        /* \"#utility.yul\":1350:1359   */\n      dup4\n        /* \"#utility.yul\":1346:1363   */\n      add\n        /* \"#utility.yul\":1337:1343   */\n      dup5\n        /* \"#utility.yul\":1293:1364   */\n      tag_82\n      jump\t// in\n    tag_121:\n        /* \"#utility.yul\":1149:1371   */\n      swap3\n      swap2\n      pop\n      pop\n      jump\t// out\n        /* \"#utility.yul\":1377:1503   */\n    tag_83:\n        /* \"#utility.yul\":1414:1421   */\n      0x00\n        /* \"#utility.yul\":1454:1496   */\n      0xffffffffffffffffffffffffffffffffffffffff\n        /* \"#utility.yul\":1447:1452   */\n      dup3\n        /* \"#utility.yul\":1443:1497   */\n      and\n        /* \"#utility.yul\":1432:1497   */\n      swap1\n      pop\n        /* \"#utility.yul\":1377:1503   */\n      swap2\n      swap1\n      pop\n      jump\t// out\n        /* \"#utility.yul\":1509:1605   */\n    tag_84:\n        /* \"#utility.yul\":1546:1553   */\n      0x00\n        /* \"#utility.yul\":1575:1599   */\n      tag_124\n        /* \"#utility.yul\":1593:1598   */\n      dup3\n        /* \"#utility.yul\":1575:1599   */\n      tag_83\n      jump\t// in\n    tag_124:\n        /* \"#utility.yul\":1564:1599   */\n      swap1\n      pop\n        /* \"#utility.yul\":1509:1605   */\n      swap2\n      swap1\n      pop\n      jump\t// out\n        /* \"#utility.yul\":1611:1733   */\n    tag_85:\n        /* \"#utility.yul\":1684:1708   */\n      tag_126\n        /* \"#utility.yul\":1702:1707   */\n      dup2\n        /* \"#utility.yul\":1684:1708   */\n      tag_84\n      jump\t// in\n    tag_126:\n        /* \"#utility.yul\":1677:1682   */\n      dup2\n        /* \"#utility.yul\":1674:1709   */\n      eq\n        /* \"#utility.yul\":1664:1727   */\n      tag_127\n      jumpi\n        /* \"#utility.yul\":1723:1724   */\n      0x00\n        /* \"#utility.yul\":1720:1721   */\n      0x00\n        /* \"#utility.yul\":1713:1725   */\n      revert\n        /* \"#utility.yul\":1664:1727   */\n    tag_127:\n        /* \"#utility.yul\":1611:1733   */\n      pop\n      jump\t// out\n        /* \"#utility.yul\":1739:1878   */\n    tag_86:\n        /* \"#utility.yul\":1785:1790   */\n      0x00\n        /* \"#utility.yul\":1823:1829   */\n      dup2\n        /* \"#utility.yul\":1810:1830   */\n      calldataload\n        /* \"#utility.yul\":1801:1830   */\n      swap1\n      pop\n        /* \"#utility.yul\":1839:1872   */\n      tag_129\n        /* \"#utility.yul\":1866:1871   */\n      dup2\n        /* \"#utility.yul\":1839:1872   */\n      tag_85\n      jump\t// in\n    tag_129:\n        /* \"#utility.yul\":1739:1878   */\n      swap3\n      swap2\n      pop\n      pop\n      jump\t// out\n        /* \"#utility.yul\":1884:2358   */\n    tag_28:\n        /* \"#utility.yul\":1952:1958   */\n      0x00\n        /* \"#utility.yul\":1960:1966   */\n      0x00\n        /* \"#utility.yul\":2009:2011   */\n      0x40\n        /* \"#utility.yul\":1997:2006   */\n      dup4\n        /* \"#utility.yul\":1988:1995   */\n      dup6\n        /* \"#utility.yul\":1984:2007   */\n      sub\n        /* \"#utility.yul\":1980:2012   */\n      slt\n        /* \"#utility.yul\":1977:2096   */\n      iszero\n      tag_131\n      jumpi\n        /* \"#utility.yul\":2015:2094   */\n      tag_132\n      tag_77\n      jump\t// in\n    tag_132:\n        /* \"#utility.yul\":1977:2096   */\n    tag_131:\n        /* \"#utility.yul\":2135:2136   */\n      0x00\n        /* \"#utility.yul\":2160:2213   */\n      tag_133\n        /* \"#utility.yul\":2205:2212   */\n      dup6\n        /* \"#utility.yul\":2196:2202   */\n      dup3\n        /* \"#utility.yul\":2185:2194   */\n      dup7\n        /* \"#utility.yul\":2181:2203   */\n      add\n        /* \"#utility.yul\":2160:2213   */\n      tag_86\n      jump\t// in\n    tag_133:\n        /* \"#utility.yul\":2150:2213   */\n      swap3\n      pop\n        /* \"#utility.yul\":2106:2223   */\n      pop\n        /* \"#utility.yul\":2262:2264   */\n      0x20\n        /* \"#utility.yul\":2288:2341   */\n      tag_134\n        /* \"#utility.yul\":2333:2340   */\n      dup6\n        /* \"#utility.yul\":2324:2330   */\n      dup3\n        /* \"#utility.yul\":2313:2322   */\n      dup7\n        /* \"#utility.yul\":2309:2331   */\n      add\n        /* \"#utility.yul\":2288:2341   */\n      tag_81\n      jump\t// in\n    tag_134:\n        /* \"#utility.yul\":2278:2341   */\n      swap2\n      pop\n        /* \"#utility.yul\":2233:2351   */\n      pop\n        /* \"#utility.yul\":1884:2358   */\n      swap3\n      pop\n      swap3\n      swap1\n      pop\n      jump\t// out\n        /* \"#utility.yul\":2364:2693   */\n    tag_35:\n        /* \"#utility.yul\":2423:2429   */\n      0x00\n        /* \"#utility.yul\":2472:2474   */\n      0x20\n        /* \"#utility.yul\":2460:2469   */\n      dup3\n        /* \"#utility.yul\":2451:2458   */\n      dup5\n        /* \"#utility.yul\":2447:2470   */\n      sub\n        /* \"#utility.yul\":2443:2475   */\n      slt\n        /* \"#utility.yul\":2440:2559   */\n      iszero\n      tag_136\n      jumpi\n        /* \"#utility.yul\":2478:2557   */\n      tag_137\n      tag_77\n      jump\t// in\n    tag_137:\n        /* \"#utility.yul\":2440:2559   */\n    tag_136:\n        /* \"#utility.yul\":2598:2599   */\n      0x00\n        /* \"#utility.yul\":2623:2676   */\n      tag_138\n        /* \"#utility.yul\":2668:2675   */\n      dup5\n        /* \"#utility.yul\":2659:2665   */\n      dup3\n        /* \"#utility.yul\":2648:2657   */\n      dup6\n        /* \"#utility.yul\":2644:2666   */\n      add\n        /* \"#utility.yul\":2623:2676   */\n      tag_86\n      jump\t// in\n    tag_138:\n        /* \"#utility.yul\":2613:2676   */\n      swap2\n      pop\n        /* \"#utility.yul\":2569:2686   */\n      pop\n        /* \"#utility.yul\":2364:2693   */\n      swap3\n      swap2\n      pop\n      pop\n      jump\t// out\n        /* \"#utility.yul\":2699:2868   */\n    tag_87:\n        /* \"#utility.yul\":2783:2794   */\n      0x00\n        /* \"#utility.yul\":2817:2823   */\n      dup3\n        /* \"#utility.yul\":2812:2815   */\n      dup3\n        /* \"#utility.yul\":2805:2824   */\n      mstore\n        /* \"#utility.yul\":2857:2861   */\n      0x20\n        /* \"#utility.yul\":2852:2855   */\n      dup3\n        /* \"#utility.yul\":2848:2862   */\n      add\n        /* \"#utility.yul\":2833:2862   */\n      swap1\n      pop\n        /* \"#utility.yul\":2699:2868   */\n      swap3\n      swap2\n      pop\n      pop\n      jump\t// out\n        /* \"#utility.yul\":2874:3054   */\n    tag_88:\n        /* \"#utility.yul\":3014:3046   */\n      0x4a756d6c6168204465706f204861727573204c65626968204461726920300000\n        /* \"#utility.yul\":3010:3011   */\n      0x00\n        /* \"#utility.yul\":3002:3008   */\n      dup3\n        /* \"#utility.yul\":2998:3012   */\n      add\n        /* \"#utility.yul\":2991:3047   */\n      mstore\n        /* \"#utility.yul\":2874:3054   */\n      pop\n      jump\t// out\n        /* \"#utility.yul\":3060:3426   */\n    tag_89:\n        /* \"#utility.yul\":3202:3205   */\n      0x00\n        /* \"#utility.yul\":3223:3290   */\n      tag_142\n        /* \"#utility.yul\":3287:3289   */\n      0x1e\n        /* \"#utility.yul\":3282:3285   */\n      dup4\n        /* \"#utility.yul\":3223:3290   */\n      tag_87\n      jump\t// in\n    tag_142:\n        /* \"#utility.yul\":3216:3290   */\n      swap2\n      pop\n        /* \"#utility.yul\":3299:3392   */\n      tag_143\n        /* \"#utility.yul\":3388:3391   */\n      dup3\n        /* \"#utility.yul\":3299:3392   */\n      tag_88\n      jump\t// in\n    tag_143:\n        /* \"#utility.yul\":3417:3419   */\n      0x20\n        /* \"#utility.yul\":3412:3415   */\n      dup3\n        /* \"#utility.yul\":3408:3420   */\n      add\n        /* \"#utility.yul\":3401:3420   */\n      swap1\n      pop\n        /* \"#utility.yul\":3060:3426   */\n      swap2\n      swap1\n      pop\n      jump\t// out\n        /* \"#utility.yul\":3432:3851   */\n    tag_41:\n        /* \"#utility.yul\":3598:3602   */\n      0x00\n        /* \"#utility.yul\":3636:3638   */\n      0x20\n        /* \"#utility.yul\":3625:3634   */\n      dup3\n        /* \"#utility.yul\":3621:3639   */\n      add\n        /* \"#utility.yul\":3613:3639   */\n      swap1\n      pop\n        /* \"#utility.yul\":3685:3694   */\n      dup2\n        /* \"#utility.yul\":3679:3683   */\n      dup2\n        /* \"#utility.yul\":3675:3695   */\n      sub\n        /* \"#utility.yul\":3671:3672   */\n      0x00\n        /* \"#utility.yul\":3660:3669   */\n      dup4\n        /* \"#utility.yul\":3656:3673   */\n      add\n        /* \"#utility.yul\":3649:3696   */\n      mstore\n        /* \"#utility.yul\":3713:3844   */\n      tag_145\n        /* \"#utility.yul\":3839:3843   */\n      dup2\n        /* \"#utility.yul\":3713:3844   */\n      tag_89\n      jump\t// in\n    tag_145:\n        /* \"#utility.yul\":3705:3844   */\n      swap1\n      pop\n        /* \"#utility.yul\":3432:3851   */\n      swap2\n      swap1\n      pop\n      jump\t// out\n        /* \"#utility.yul\":3857:4037   */\n    tag_90:\n        /* \"#utility.yul\":3905:3982   */\n      0x4e487b7100000000000000000000000000000000000000000000000000000000\n        /* \"#utility.yul\":3902:3903   */\n      0x00\n        /* \"#utility.yul\":3895:3983   */\n      mstore\n        /* \"#utility.yul\":4002:4006   */\n      0x11\n        /* \"#utility.yul\":3999:4000   */\n      0x04\n        /* \"#utility.yul\":3992:4007   */\n      mstore\n        /* \"#utility.yul\":4026:4030   */\n      0x24\n        /* \"#utility.yul\":4023:4024   */\n      0x00\n        /* \"#utility.yul\":4016:4031   */\n      revert\n        /* \"#utility.yul\":4043:4234   */\n    tag_43:\n        /* \"#utility.yul\":4083:4086   */\n      0x00\n        /* \"#utility.yul\":4102:4122   */\n      tag_148\n        /* \"#utility.yul\":4120:4121   */\n      dup3\n        /* \"#utility.yul\":4102:4122   */\n      tag_79\n      jump\t// in\n    tag_148:\n        /* \"#utility.yul\":4097:4122   */\n      swap2\n      pop\n        /* \"#utility.yul\":4136:4156   */\n      tag_149\n        /* \"#utility.yul\":4154:4155   */\n      dup4\n        /* \"#utility.yul\":4136:4156   */\n      tag_79\n      jump\t// in\n    tag_149:\n        /* \"#utility.yul\":4131:4156   */\n      swap3\n      pop\n        /* \"#utility.yul\":4179:4180   */\n      dup3\n        /* \"#utility.yul\":4176:4177   */\n      dup3\n        /* \"#utility.yul\":4172:4181   */\n      add\n        /* \"#utility.yul\":4165:4181   */\n      swap1\n      pop\n        /* \"#utility.yul\":4200:4203   */\n      dup1\n        /* \"#utility.yul\":4197:4198   */\n      dup3\n        /* \"#utility.yul\":4194:4204   */\n      gt\n        /* \"#utility.yul\":4191:4227   */\n      iszero\n      tag_150\n      jumpi\n        /* \"#utility.yul\":4207:4225   */\n      tag_151\n      tag_90\n      jump\t// in\n    tag_151:\n        /* \"#utility.yul\":4191:4227   */\n    tag_150:\n        /* \"#utility.yul\":4043:4234   */\n      swap3\n      swap2\n      pop\n      pop\n      jump\t// out\n        /* \"#utility.yul\":4240:4412   */\n    tag_91:\n        /* \"#utility.yul\":4380:4404   */\n      0x50656e6172696b616e20746964616b2062697361203000000000000000000000\n        /* \"#utility.yul\":4376:4377   */\n      0x00\n        /* \"#utility.yul\":4368:4374   */\n      dup3\n        /* \"#utility.yul\":4364:4378   */\n      add\n        /* \"#utility.yul\":4357:4405   */\n      mstore\n        /* \"#utility.yul\":4240:4412   */\n      pop\n      jump\t// out\n        /* \"#utility.yul\":4418:4784   */\n    tag_92:\n        /* \"#utility.yul\":4560:4563   */\n      0x00\n        /* \"#utility.yul\":4581:4648   */\n      tag_154\n        /* \"#utility.yul\":4645:4647   */\n      0x16\n        /* \"#utility.yul\":4640:4643   */\n      dup4\n        /* \"#utility.yul\":4581:4648   */\n      tag_87\n      jump\t// in\n    tag_154:\n        /* \"#utility.yul\":4574:4648   */\n      swap2\n      pop\n        /* \"#utility.yul\":4657:4750   */\n      tag_155\n        /* \"#utility.yul\":4746:4749   */\n      dup3\n        /* \"#utility.yul\":4657:4750   */\n      tag_91\n      jump\t// in\n    tag_155:\n        /* \"#utility.yul\":4775:4777   */\n      0x20\n        /* \"#utility.yul\":4770:4773   */\n      dup3\n        /* \"#utility.yul\":4766:4778   */\n      add\n        /* \"#utility.yul\":4759:4778   */\n      swap1\n      pop\n        /* \"#utility.yul\":4418:4784   */\n      swap2\n      swap1\n      pop\n      jump\t// out\n        /* \"#utility.yul\":4790:5209   */\n    tag_48:\n        /* \"#utility.yul\":4956:4960   */\n      0x00\n        /* \"#utility.yul\":4994:4996   */\n      0x20\n        /* \"#utility.yul\":4983:4992   */\n      dup3\n        /* \"#utility.yul\":4979:4997   */\n      add\n        /* \"#utility.yul\":4971:4997   */\n      swap1\n      pop\n        /* \"#utility.yul\":5043:5052   */\n      dup2\n        /* \"#utility.yul\":5037:5041   */\n      dup2\n        /* \"#utility.yul\":5033:5053   */\n      sub\n        /* \"#utility.yul\":5029:5030   */\n      0x00\n        /* \"#utility.yul\":5018:5027   */\n      dup4\n        /* \"#utility.yul\":5014:5031   */\n      add\n        /* \"#utility.yul\":5007:5054   */\n      mstore\n        /* \"#utility.yul\":5071:5202   */\n      tag_157\n        /* \"#utility.yul\":5197:5201   */\n      dup2\n        /* \"#utility.yul\":5071:5202   */\n      tag_92\n      jump\t// in\n    tag_157:\n        /* \"#utility.yul\":5063:5202   */\n      swap1\n      pop\n        /* \"#utility.yul\":4790:5209   */\n      swap2\n      swap1\n      pop\n      jump\t// out\n        /* \"#utility.yul\":5215:5382   */\n    tag_93:\n        /* \"#utility.yul\":5355:5374   */\n      0x53616c646f20746964616b2063756b7570000000000000000000000000000000\n        /* \"#utility.yul\":5351:5352   */\n      0x00\n        /* \"#utility.yul\":5343:5349   */\n      dup3\n        /* \"#utility.yul\":5339:5353   */\n      add\n        /* \"#utility.yul\":5332:5375   */\n      mstore\n        /* \"#utility.yul\":5215:5382   */\n      pop\n      jump\t// out\n        /* \"#utility.yul\":5388:5754   */\n    tag_94:\n        /* \"#utility.yul\":5530:5533   */\n      0x00\n        /* \"#utility.yul\":5551:5618   */\n      tag_160\n        /* \"#utility.yul\":5615:5617   */\n      0x11\n        /* \"#utility.yul\":5610:5613   */\n      dup4\n        /* \"#utility.yul\":5551:5618   */\n      tag_87\n      jump\t// in\n    tag_160:\n        /* \"#utility.yul\":5544:5618   */\n      swap2\n      pop\n        /* \"#utility.yul\":5627:5720   */\n      tag_161\n        /* \"#utility.yul\":5716:5719   */\n      dup3\n        /* \"#utility.yul\":5627:5720   */\n      tag_93\n      jump\t// in\n    tag_161:\n        /* \"#utility.yul\":5745:5747   */\n      0x20\n        /* \"#utility.yul\":5740:5743   */\n      dup3\n        /* \"#utility.yul\":5736:5748   */\n      add\n        /* \"#utility.yul\":5729:5748   */\n      swap1\n      pop\n        /* \"#utility.yul\":5388:5754   */\n      swap2\n      swap1\n      pop\n      jump\t// out\n        /* \"#utility.yul\":5760:6179   */\n    tag_51:\n        /* \"#utility.yul\":5926:5930   */\n      0x00\n        /* \"#utility.yul\":5964:5966   */\n      0x20\n        /* \"#utility.yul\":5953:5962   */\n      dup3\n        /* \"#utility.yul\":5949:5967   */\n      add\n        /* \"#utility.yul\":5941:5967   */\n      swap1\n      pop\n        /* \"#utility.yul\":6013:6022   */\n      dup2\n        /* \"#utility.yul\":6007:6011   */\n      dup2\n        /* \"#utility.yul\":6003:6023   */\n      sub\n        /* \"#utility.yul\":5999:6000   */\n      0x00\n        /* \"#utility.yul\":5988:5997   */\n      dup4\n        /* \"#utility.yul\":5984:6001   */\n      add\n        /* \"#utility.yul\":5977:6024   */\n      mstore\n        /* \"#utility.yul\":6041:6172   */\n      tag_163\n        /* \"#utility.yul\":6167:6171   */\n      dup2\n        /* \"#utility.yul\":6041:6172   */\n      tag_94\n      jump\t// in\n    tag_163:\n        /* \"#utility.yul\":6033:6172   */\n      swap1\n      pop\n        /* \"#utility.yul\":5760:6179   */\n      swap2\n      swap1\n      pop\n      jump\t// out\n        /* \"#utility.yul\":6185:6379   */\n    tag_53:\n        /* \"#utility.yul\":6225:6229   */\n      0x00\n        /* \"#utility.yul\":6245:6265   */\n      tag_165\n        /* \"#utility.yul\":6263:6264   */\n      dup3\n        /* \"#utility.yul\":6245:6265   */\n      tag_79\n      jump\t// in\n    tag_165:\n        /* \"#utility.yul\":6240:6265   */\n      swap2\n      pop\n        /* \"#utility.yul\":6279:6299   */\n      tag_166\n        /* \"#utility.yul\":6297:6298   */\n      dup4\n        /* \"#utility.yul\":6279:6299   */\n      tag_79\n      jump\t// in\n    tag_166:\n        /* \"#utility.yul\":6274:6299   */\n      swap3\n      pop\n        /* \"#utility.yul\":6323:6324   */\n      dup3\n        /* \"#utility.yul\":6320:6321   */\n      dup3\n        /* \"#utility.yul\":6316:6325   */\n      sub\n        /* \"#utility.yul\":6308:6325   */\n      swap1\n      pop\n        /* \"#utility.yul\":6347:6348   */\n      dup2\n        /* \"#utility.yul\":6341:6345   */\n      dup2\n        /* \"#utility.yul\":6338:6349   */\n      gt\n        /* \"#utility.yul\":6335:6372   */\n      iszero\n      tag_167\n      jumpi\n        /* \"#utility.yul\":6352:6370   */\n      tag_168\n      tag_90\n      jump\t// in\n    tag_168:\n        /* \"#utility.yul\":6335:6372   */\n    tag_167:\n        /* \"#utility.yul\":6185:6379   */\n      swap3\n      swap2\n      pop\n      pop\n      jump\t// out\n        /* \"#utility.yul\":6385:6532   */\n    tag_95:\n        /* \"#utility.yul\":6486:6497   */\n      0x00\n        /* \"#utility.yul\":6523:6526   */\n      dup2\n        /* \"#utility.yul\":6508:6526   */\n      swap1\n      pop\n        /* \"#utility.yul\":6385:6532   */\n      swap3\n      swap2\n      pop\n      pop\n      jump\t// out\n        /* \"#utility.yul\":6538:6652   */\n    tag_96:\n      pop\n      jump\t// out\n        /* \"#utility.yul\":6658:7056   */\n    tag_97:\n        /* \"#utility.yul\":6817:6820   */\n      0x00\n        /* \"#utility.yul\":6838:6921   */\n      tag_172\n        /* \"#utility.yul\":6919:6920   */\n      0x00\n        /* \"#utility.yul\":6914:6917   */\n      dup4\n        /* \"#utility.yul\":6838:6921   */\n      tag_95\n      jump\t// in\n    tag_172:\n        /* \"#utility.yul\":6831:6921   */\n      swap2\n      pop\n        /* \"#utility.yul\":6930:7023   */\n      tag_173\n        /* \"#utility.yul\":7019:7022   */\n      dup3\n        /* \"#utility.yul\":6930:7023   */\n      tag_96\n      jump\t// in\n    tag_173:\n        /* \"#utility.yul\":7048:7049   */\n      0x00\n        /* \"#utility.yul\":7043:7046   */\n      dup3\n        /* \"#utility.yul\":7039:7050   */\n      add\n        /* \"#utility.yul\":7032:7050   */\n      swap1\n      pop\n        /* \"#utility.yul\":6658:7056   */\n      swap2\n      swap1\n      pop\n      jump\t// out\n        /* \"#utility.yul\":7062:7441   */\n    tag_55:\n        /* \"#utility.yul\":7246:7249   */\n      0x00\n        /* \"#utility.yul\":7268:7415   */\n      tag_175\n        /* \"#utility.yul\":7411:7414   */\n      dup3\n        /* \"#utility.yul\":7268:7415   */\n      tag_97\n      jump\t// in\n    tag_175:\n        /* \"#utility.yul\":7261:7415   */\n      swap2\n      pop\n        /* \"#utility.yul\":7432:7435   */\n      dup2\n        /* \"#utility.yul\":7425:7435   */\n      swap1\n      pop\n        /* \"#utility.yul\":7062:7441   */\n      swap2\n      swap1\n      pop\n      jump\t// out\n        /* \"#utility.yul\":7447:7611   */\n    tag_98:\n        /* \"#utility.yul\":7587:7603   */\n      0x7472616e7366657220676167616c000000000000000000000000000000000000\n        /* \"#utility.yul\":7583:7584   */\n      0x00\n        /* \"#utility.yul\":7575:7581   */\n      dup3\n        /* \"#utility.yul\":7571:7585   */\n      add\n        /* \"#utility.yul\":7564:7604   */\n      mstore\n        /* \"#utility.yul\":7447:7611   */\n      pop\n      jump\t// out\n        /* \"#utility.yul\":7617:7983   */\n    tag_99:\n        /* \"#utility.yul\":7759:7762   */\n      0x00\n        /* \"#utility.yul\":7780:7847   */\n      tag_178\n        /* \"#utility.yul\":7844:7846   */\n      0x0e\n        /* \"#utility.yul\":7839:7842   */\n      dup4\n        /* \"#utility.yul\":7780:7847   */\n      tag_87\n      jump\t// in\n    tag_178:\n        /* \"#utility.yul\":7773:7847   */\n      swap2\n      pop\n        /* \"#utility.yul\":7856:7949   */\n      tag_179\n        /* \"#utility.yul\":7945:7948   */\n      dup3\n        /* \"#utility.yul\":7856:7949   */\n      tag_98\n      jump\t// in\n    tag_179:\n        /* \"#utility.yul\":7974:7976   */\n      0x20\n        /* \"#utility.yul\":7969:7972   */\n      dup3\n        /* \"#utility.yul\":7965:7977   */\n      add\n        /* \"#utility.yul\":7958:7977   */\n      swap1\n      pop\n        /* \"#utility.yul\":7617:7983   */\n      swap2\n      swap1\n      pop\n      jump\t// out\n        /* \"#utility.yul\":7989:8408   */\n    tag_61:\n        /* \"#utility.yul\":8155:8159   */\n      0x00\n        /* \"#utility.yul\":8193:8195   */\n      0x20\n        /* \"#utility.yul\":8182:8191   */\n      dup3\n        /* \"#utility.yul\":8178:8196   */\n      add\n        /* \"#utility.yul\":8170:8196   */\n      swap1\n      pop\n        /* \"#utility.yul\":8242:8251   */\n      dup2\n        /* \"#utility.yul\":8236:8240   */\n      dup2\n        /* \"#utility.yul\":8232:8252   */\n      sub\n        /* \"#utility.yul\":8228:8229   */\n      0x00\n        /* \"#utility.yul\":8217:8226   */\n      dup4\n        /* \"#utility.yul\":8213:8230   */\n      add\n        /* \"#utility.yul\":8206:8253   */\n      mstore\n        /* \"#utility.yul\":8270:8401   */\n      tag_181\n        /* \"#utility.yul\":8396:8400   */\n      dup2\n        /* \"#utility.yul\":8270:8401   */\n      tag_99\n      jump\t// in\n    tag_181:\n        /* \"#utility.yul\":8262:8401   */\n      swap1\n      pop\n        /* \"#utility.yul\":7989:8408   */\n      swap2\n      swap1\n      pop\n      jump\t// out\n        /* \"#utility.yul\":8414:8581   */\n    tag_100:\n        /* \"#utility.yul\":8554:8573   */\n      0x73616c646f20746964616b2063756b7570000000000000000000000000000000\n        /* \"#utility.yul\":8550:8551   */\n      0x00\n        /* \"#utility.yul\":8542:8548   */\n      dup3\n        /* \"#utility.yul\":8538:8552   */\n      add\n        /* \"#utility.yul\":8531:8574   */\n      mstore\n        /* \"#utility.yul\":8414:8581   */\n      pop\n      jump\t// out\n        /* \"#utility.yul\":8587:8953   */\n    tag_101:\n        /* \"#utility.yul\":8729:8732   */\n      0x00\n        /* \"#utility.yul\":8750:8817   */\n      tag_184\n        /* \"#utility.yul\":8814:8816   */\n      0x11\n        /* \"#utility.yul\":8809:8812   */\n      dup4\n        /* \"#utility.yul\":8750:8817   */\n      tag_87\n      jump\t// in\n    tag_184:\n        /* \"#utility.yul\":8743:8817   */\n      swap2\n      pop\n        /* \"#utility.yul\":8826:8919   */\n      tag_185\n        /* \"#utility.yul\":8915:8918   */\n      dup3\n        /* \"#utility.yul\":8826:8919   */\n      tag_100\n      jump\t// in\n    tag_185:\n        /* \"#utility.yul\":8944:8946   */\n      0x20\n        /* \"#utility.yul\":8939:8942   */\n      dup3\n        /* \"#utility.yul\":8935:8947   */\n      add\n        /* \"#utility.yul\":8928:8947   */\n      swap1\n      pop\n        /* \"#utility.yul\":8587:8953   */\n      swap2\n      swap1\n      pop\n      jump\t// out\n        /* \"#utility.yul\":8959:9378   */\n    tag_66:\n        /* \"#utility.yul\":9125:9129   */\n      0x00\n        /* \"#utility.yul\":9163:9165   */\n      0x20\n        /* \"#utility.yul\":9152:9161   */\n      dup3\n        /* \"#utility.yul\":9148:9166   */\n      add\n        /* \"#utility.yul\":9140:9166   */\n      swap1\n      pop\n        /* \"#utility.yul\":9212:9221   */\n      dup2\n        /* \"#utility.yul\":9206:9210   */\n      dup2\n        /* \"#utility.yul\":9202:9222   */\n      sub\n        /* \"#utility.yul\":9198:9199   */\n      0x00\n        /* \"#utility.yul\":9187:9196   */\n      dup4\n        /* \"#utility.yul\":9183:9200   */\n      add\n        /* \"#utility.yul\":9176:9223   */\n      mstore\n        /* \"#utility.yul\":9240:9371   */\n      tag_187\n        /* \"#utility.yul\":9366:9370   */\n      dup2\n        /* \"#utility.yul\":9240:9371   */\n      tag_101\n      jump\t// in\n    tag_187:\n        /* \"#utility.yul\":9232:9371   */\n      swap1\n      pop\n        /* \"#utility.yul\":8959:9378   */\n      swap2\n      swap1\n      pop\n      jump\t// out\n        /* \"#utility.yul\":9384:9546   */\n    tag_102:\n        /* \"#utility.yul\":9524:9538   */\n      0x61646472657373207a65726f0000000000000000000000000000000000000000\n        /* \"#utility.yul\":9520:9521   */\n      0x00\n        /* \"#utility.yul\":9512:9518   */\n      dup3\n        /* \"#utility.yul\":9508:9522   */\n      add\n        /* \"#utility.yul\":9501:9539   */\n      mstore\n        /* \"#utility.yul\":9384:9546   */\n      pop\n      jump\t// out\n        /* \"#utility.yul\":9552:9918   */\n    tag_103:\n        /* \"#utility.yul\":9694:9697   */\n      0x00\n        /* \"#utility.yul\":9715:9782   */\n      tag_190\n        /* \"#utility.yul\":9779:9781   */\n      0x0c\n        /* \"#utility.yul\":9774:9777   */\n      dup4\n        /* \"#utility.yul\":9715:9782   */\n      tag_87\n      jump\t// in\n    tag_190:\n        /* \"#utility.yul\":9708:9782   */\n      swap2\n      pop\n        /* \"#utility.yul\":9791:9884   */\n      tag_191\n        /* \"#utility.yul\":9880:9883   */\n      dup3\n        /* \"#utility.yul\":9791:9884   */\n      tag_102\n      jump\t// in\n    tag_191:\n        /* \"#utility.yul\":9909:9911   */\n      0x20\n        /* \"#utility.yul\":9904:9907   */\n      dup3\n        /* \"#utility.yul\":9900:9912   */\n      add\n        /* \"#utility.yul\":9893:9912   */\n      swap1\n      pop\n        /* \"#utility.yul\":9552:9918   */\n      swap2\n      swap1\n      pop\n      jump\t// out\n        /* \"#utility.yul\":9924:10343   */\n    tag_69:\n        /* \"#utility.yul\":10090:10094   */\n      0x00\n        /* \"#utility.yul\":10128:10130   */\n      0x20\n        /* \"#utility.yul\":10117:10126   */\n      dup3\n        /* \"#utility.yul\":10113:10131   */\n      add\n        /* \"#utility.yul\":10105:10131   */\n      swap1\n      pop\n        /* \"#utility.yul\":10177:10186   */\n      dup2\n        /* \"#utility.yul\":10171:10175   */\n      dup2\n        /* \"#utility.yul\":10167:10187   */\n      sub\n        /* \"#utility.yul\":10163:10164   */\n      0x00\n        /* \"#utility.yul\":10152:10161   */\n      dup4\n        /* \"#utility.yul\":10148:10165   */\n      add\n        /* \"#utility.yul\":10141:10188   */\n      mstore\n        /* \"#utility.yul\":10205:10336   */\n      tag_193\n        /* \"#utility.yul\":10331:10335   */\n      dup2\n        /* \"#utility.yul\":10205:10336   */\n      tag_103\n      jump\t// in\n    tag_193:\n        /* \"#utility.yul\":10197:10336   */\n      swap1\n      pop\n        /* \"#utility.yul\":9924:10343   */\n      swap2\n      swap1\n      pop\n      jump\t// out\n\n    auxdata: 0xa2646970667358221220523c2a7311e8f2e28c5d6caf5465dad90b110e3d2bdbb68ee94411d65e93789b64736f6c634300081f0033\n}\n",
				"bytecode": {
					"linkReferences": {},
					"object": "6080604052348015600e575f5ffd5b50335f5f6101000a81548173ffffffffffffffffffffffffffffffffffffffff021916908373ffffffffffffffffffffffffffffffffffffffff160217905550610b348061005b5f395ff3fe60806040526004361061004d575f3560e01c80632e1a7d4d146100665780634c7389091461008e578063a9059cbb146100b8578063d0e30db0146100e0578063f8b2cb4f146100ea5761005c565b3661005c5761005a610126565b005b610064610126565b005b348015610071575f5ffd5b5061008c60048036038101906100879190610694565b61020b565b005b348015610099575f5ffd5b506100a26103cc565b6040516100af91906106ce565b60405180910390f35b3480156100c3575f5ffd5b506100de60048036038101906100d99190610741565b610410565b005b6100e861060d565b005b3480156100f5575f5ffd5b50610110600480360381019061010b919061077f565b610617565b60405161011d91906106ce565b60405180910390f35b5f3411610168576040517f08c379a000000000000000000000000000000000000000000000000000000000815260040161015f90610804565b60405180910390fd5b3460015f3373ffffffffffffffffffffffffffffffffffffffff1673ffffffffffffffffffffffffffffffffffffffff1681526020019081526020015f205f8282546101b4919061084f565b925050819055503373ffffffffffffffffffffffffffffffffffffffff167fe1fffcc4923d04b559f4d29a8bfc6cda04eb5b0d3c460751c2402c5c5cc9109c3460405161020191906106ce565b60405180910390a2565b5f811161024d576040517f08c379a0000000000000000000000000000000000000000000000000000000008152600401610244906108cc565b60405180910390fd5b8060015f3373ffffffffffffffffffffffffffffffffffffffff1673ffffffffffffffffffffffffffffffffffffffff1681526020019081526020015f205410156102cd576040517f08c379a00000000000000000000000000000000000000000000000000000000081526004016102c490610934565b60405180910390fd5b8060015f3373ffffffffffffffffffffffffffffffffffffffff1673ffffffffffffffffffffffffffffffffffffffff1681526020019081526020015f205f8282546103199190610952565b925050819055505f3373ffffffffffffffffffffffffffffffffffffffff1682604051610345906109b2565b5f6040518083038185875af1925050503d805f811461037f576040519150601f19603f3d011682016040523d82523d5f602084013e610384565b606091505b50509050806103c8576040517f08c379a00000000000000000000000000000000000000000000000000000000081526004016103bf90610a10565b60405180910390fd5b5050565b5f60015f3373ffffffffffffffffffffffffffffffffffffffff1673ffffffffffffffffffffffffffffffffffffffff1681526020019081526020015f2054905090565b8060015f3373ffffffffffffffffffffffffffffffffffffffff1673ffffffffffffffffffffffffffffffffffffffff1681526020019081526020015f20541015610490576040517f08c379a000000000000000000000000000000000000000000000000000000000815260040161048790610a78565b60405180910390fd5b5f73ffffffffffffffffffffffffffffffffffffffff168273ffffffffffffffffffffffffffffffffffffffff16036104fe576040517f08c379a00000000000000000000000000000000000000000000000000000000081526004016104f590610ae0565b60405180910390fd5b8060015f3373ffffffffffffffffffffffffffffffffffffffff1673ffffffffffffffffffffffffffffffffffffffff1681526020019081526020015f205f82825461054a9190610952565b925050819055508060015f8473ffffffffffffffffffffffffffffffffffffffff1673ffffffffffffffffffffffffffffffffffffffff1681526020019081526020015f205f82825461059d919061084f565b925050819055508173ffffffffffffffffffffffffffffffffffffffff163373ffffffffffffffffffffffffffffffffffffffff167fddf252ad1be2c89b69c2b068fc378daa952ba7f163c4a11628f55a4df523b3ef8360405161060191906106ce565b60405180910390a35050565b610615610126565b565b5f60015f8373ffffffffffffffffffffffffffffffffffffffff1673ffffffffffffffffffffffffffffffffffffffff1681526020019081526020015f20549050919050565b5f5ffd5b5f819050919050565b61067381610661565b811461067d575f5ffd5b50565b5f8135905061068e8161066a565b92915050565b5f602082840312156106a9576106a861065d565b5b5f6106b684828501610680565b91505092915050565b6106c881610661565b82525050565b5f6020820190506106e15f8301846106bf565b92915050565b5f73ffffffffffffffffffffffffffffffffffffffff82169050919050565b5f610710826106e7565b9050919050565b61072081610706565b811461072a575f5ffd5b50565b5f8135905061073b81610717565b92915050565b5f5f604083850312156107575761075661065d565b5b5f6107648582860161072d565b925050602061077585828601610680565b9150509250929050565b5f602082840312156107945761079361065d565b5b5f6107a18482850161072d565b91505092915050565b5f82825260208201905092915050565b7f4a756d6c6168204465706f204861727573204c656269682044617269203000005f82015250565b5f6107ee601e836107aa565b91506107f9826107ba565b602082019050919050565b5f6020820190508181035f83015261081b816107e2565b9050919050565b7f4e487b71000000000000000000000000000000000000000000000000000000005f52601160045260245ffd5b5f61085982610661565b915061086483610661565b925082820190508082111561087c5761087b610822565b5b92915050565b7f50656e6172696b616e20746964616b20626973612030000000000000000000005f82015250565b5f6108b66016836107aa565b91506108c182610882565b602082019050919050565b5f6020820190508181035f8301526108e3816108aa565b9050919050565b7f53616c646f20746964616b2063756b75700000000000000000000000000000005f82015250565b5f61091e6011836107aa565b9150610929826108ea565b602082019050919050565b5f6020820190508181035f83015261094b81610912565b9050919050565b5f61095c82610661565b915061096783610661565b925082820390508181111561097f5761097e610822565b5b92915050565b5f81905092915050565b50565b5f61099d5f83610985565b91506109a88261098f565b5f82019050919050565b5f6109bc82610992565b9150819050919050565b7f7472616e7366657220676167616c0000000000000000000000000000000000005f82015250565b5f6109fa600e836107aa565b9150610a05826109c6565b602082019050919050565b5f6020820190508181035f830152610a27816109ee565b9050919050565b7f73616c646f20746964616b2063756b75700000000000000000000000000000005f82015250565b5f610a626011836107aa565b9150610a6d82610a2e565b602082019050919050565b5f6020820190508181035f830152610a8f81610a56565b9050919050565b7f61646472657373207a65726f00000000000000000000000000000000000000005f82015250565b5f610aca600c836107aa565b9150610ad582610a96565b602082019050919050565b5f6020820190508181035f830152610af781610abe565b905091905056fea2646970667358221220523c2a7311e8f2e28c5d6caf5465dad90b110e3d2bdbb68ee94411d65e93789b64736f6c634300081f0033",
					"opcodes": "PUSH1 0x80 PUSH1 0x40 MSTORE CALLVALUE DUP1 ISZERO PUSH1 0xE JUMPI PUSH0 PUSH0 REVERT JUMPDEST POP CALLER PUSH0 PUSH0 PUSH2 0x100 EXP DUP2 SLOAD DUP2 PUSH20 0xFFFFFFFFFFFFFFFFFFFFFFFFFFFFFFFFFFFFFFFF MUL NOT AND SWAP1 DUP4 PUSH20 0xFFFFFFFFFFFFFFFFFFFFFFFFFFFFFFFFFFFFFFFF AND MUL OR SWAP1 SSTORE POP PUSH2 0xB34 DUP1 PUSH2 0x5B PUSH0 CODECOPY PUSH0 RETURN INVALID PUSH1 0x80 PUSH1 0x40 MSTORE PUSH1 0x4 CALLDATASIZE LT PUSH2 0x4D JUMPI PUSH0 CALLDATALOAD PUSH1 0xE0 SHR DUP1 PUSH4 0x2E1A7D4D EQ PUSH2 0x66 JUMPI DUP1 PUSH4 0x4C738909 EQ PUSH2 0x8E JUMPI DUP1 PUSH4 0xA9059CBB EQ PUSH2 0xB8 JUMPI DUP1 PUSH4 0xD0E30DB0 EQ PUSH2 0xE0 JUMPI DUP1 PUSH4 0xF8B2CB4F EQ PUSH2 0xEA JUMPI PUSH2 0x5C JUMP JUMPDEST CALLDATASIZE PUSH2 0x5C JUMPI PUSH2 0x5A PUSH2 0x126 JUMP JUMPDEST STOP JUMPDEST PUSH2 0x64 PUSH2 0x126 JUMP JUMPDEST STOP JUMPDEST CALLVALUE DUP1 ISZERO PUSH2 0x71 JUMPI PUSH0 PUSH0 REVERT JUMPDEST POP PUSH2 0x8C PUSH1 0x4 DUP1 CALLDATASIZE SUB DUP2 ADD SWAP1 PUSH2 0x87 SWAP2 SWAP1 PUSH2 0x694 JUMP JUMPDEST PUSH2 0x20B JUMP JUMPDEST STOP JUMPDEST CALLVALUE DUP1 ISZERO PUSH2 0x99 JUMPI PUSH0 PUSH0 REVERT JUMPDEST POP PUSH2 0xA2 PUSH2 0x3CC JUMP JUMPDEST PUSH1 0x40 MLOAD PUSH2 0xAF SWAP2 SWAP1 PUSH2 0x6CE JUMP JUMPDEST PUSH1 0x40 MLOAD DUP1 SWAP2 SUB SWAP1 RETURN JUMPDEST CALLVALUE DUP1 ISZERO PUSH2 0xC3 JUMPI PUSH0 PUSH0 REVERT JUMPDEST POP PUSH2 0xDE PUSH1 0x4 DUP1 CALLDATASIZE SUB DUP2 ADD SWAP1 PUSH2 0xD9 SWAP2 SWAP1 PUSH2 0x741 JUMP JUMPDEST PUSH2 0x410 JUMP JUMPDEST STOP JUMPDEST PUSH2 0xE8 PUSH2 0x60D JUMP JUMPDEST STOP JUMPDEST CALLVALUE DUP1 ISZERO PUSH2 0xF5 JUMPI PUSH0 PUSH0 REVERT JUMPDEST POP PUSH2 0x110 PUSH1 0x4 DUP1 CALLDATASIZE SUB DUP2 ADD SWAP1 PUSH2 0x10B SWAP2 SWAP1 PUSH2 0x77F JUMP JUMPDEST PUSH2 0x617 JUMP JUMPDEST PUSH1 0x40 MLOAD PUSH2 0x11D SWAP2 SWAP1 PUSH2 0x6CE JUMP JUMPDEST PUSH1 0x40 MLOAD DUP1 SWAP2 SUB SWAP1 RETURN JUMPDEST PUSH0 CALLVALUE GT PUSH2 0x168 JUMPI PUSH1 0x40 MLOAD PUSH32 0x8C379A000000000000000000000000000000000000000000000000000000000 DUP2 MSTORE PUSH1 0x4 ADD PUSH2 0x15F SWAP1 PUSH2 0x804 JUMP JUMPDEST PUSH1 0x40 MLOAD DUP1 SWAP2 SUB SWAP1 REVERT JUMPDEST CALLVALUE PUSH1 0x1 PUSH0 CALLER PUSH20 0xFFFFFFFFFFFFFFFFFFFFFFFFFFFFFFFFFFFFFFFF AND PUSH20 0xFFFFFFFFFFFFFFFFFFFFFFFFFFFFFFFFFFFFFFFF AND DUP2 MSTORE PUSH1 0x20 ADD SWAP1 DUP2 MSTORE PUSH1 0x20 ADD PUSH0 KECCAK256 PUSH0 DUP3 DUP3 SLOAD PUSH2 0x1B4 SWAP2 SWAP1 PUSH2 0x84F JUMP JUMPDEST SWAP3 POP POP DUP2 SWAP1 SSTORE POP CALLER PUSH20 0xFFFFFFFFFFFFFFFFFFFFFFFFFFFFFFFFFFFFFFFF AND PUSH32 0xE1FFFCC4923D04B559F4D29A8BFC6CDA04EB5B0D3C460751C2402C5C5CC9109C CALLVALUE PUSH1 0x40 MLOAD PUSH2 0x201 SWAP2 SWAP1 PUSH2 0x6CE JUMP JUMPDEST PUSH1 0x40 MLOAD DUP1 SWAP2 SUB SWAP1 LOG2 JUMP JUMPDEST PUSH0 DUP2 GT PUSH2 0x24D JUMPI PUSH1 0x40 MLOAD PUSH32 0x8C379A000000000000000000000000000000000000000000000000000000000 DUP2 MSTORE PUSH1 0x4 ADD PUSH2 0x244 SWAP1 PUSH2 0x8CC JUMP JUMPDEST PUSH1 0x40 MLOAD DUP1 SWAP2 SUB SWAP1 REVERT JUMPDEST DUP1 PUSH1 0x1 PUSH0 CALLER PUSH20 0xFFFFFFFFFFFFFFFFFFFFFFFFFFFFFFFFFFFFFFFF AND PUSH20 0xFFFFFFFFFFFFFFFFFFFFFFFFFFFFFFFFFFFFFFFF AND DUP2 MSTORE PUSH1 0x20 ADD SWAP1 DUP2 MSTORE PUSH1 0x20 ADD PUSH0 KECCAK256 SLOAD LT ISZERO PUSH2 0x2CD JUMPI PUSH1 0x40 MLOAD PUSH32 0x8C379A000000000000000000000000000000000000000000000000000000000 DUP2 MSTORE PUSH1 0x4 ADD PUSH2 0x2C4 SWAP1 PUSH2 0x934 JUMP JUMPDEST PUSH1 0x40 MLOAD DUP1 SWAP2 SUB SWAP1 REVERT JUMPDEST DUP1 PUSH1 0x1 PUSH0 CALLER PUSH20 0xFFFFFFFFFFFFFFFFFFFFFFFFFFFFFFFFFFFFFFFF AND PUSH20 0xFFFFFFFFFFFFFFFFFFFFFFFFFFFFFFFFFFFFFFFF AND DUP2 MSTORE PUSH1 0x20 ADD SWAP1 DUP2 MSTORE PUSH1 0x20 ADD PUSH0 KECCAK256 PUSH0 DUP3 DUP3 SLOAD PUSH2 0x319 SWAP2 SWAP1 PUSH2 0x952 JUMP JUMPDEST SWAP3 POP POP DUP2 SWAP1 SSTORE POP PUSH0 CALLER PUSH20 0xFFFFFFFFFFFFFFFFFFFFFFFFFFFFFFFFFFFFFFFF AND DUP3 PUSH1 0x40 MLOAD PUSH2 0x345 SWAP1 PUSH2 0x9B2 JUMP JUMPDEST PUSH0 PUSH1 0x40 MLOAD DUP1 DUP4 SUB DUP2 DUP6 DUP8 GAS CALL SWAP3 POP POP POP RETURNDATASIZE DUP1 PUSH0 DUP2 EQ PUSH2 0x37F JUMPI PUSH1 0x40 MLOAD SWAP2 POP PUSH1 0x1F NOT PUSH1 0x3F RETURNDATASIZE ADD AND DUP3 ADD PUSH1 0x40 MSTORE RETURNDATASIZE DUP3 MSTORE RETURNDATASIZE PUSH0 PUSH1 0x20 DUP5 ADD RETURNDATACOPY PUSH2 0x384 JUMP JUMPDEST PUSH1 0x60 SWAP2 POP JUMPDEST POP POP SWAP1 POP DUP1 PUSH2 0x3C8 JUMPI PUSH1 0x40 MLOAD PUSH32 0x8C379A000000000000000000000000000000000000000000000000000000000 DUP2 MSTORE PUSH1 0x4 ADD PUSH2 0x3BF SWAP1 PUSH2 0xA10 JUMP JUMPDEST PUSH1 0x40 MLOAD DUP1 SWAP2 SUB SWAP1 REVERT JUMPDEST POP POP JUMP JUMPDEST PUSH0 PUSH1 0x1 PUSH0 CALLER PUSH20 0xFFFFFFFFFFFFFFFFFFFFFFFFFFFFFFFFFFFFFFFF AND PUSH20 0xFFFFFFFFFFFFFFFFFFFFFFFFFFFFFFFFFFFFFFFF AND DUP2 MSTORE PUSH1 0x20 ADD SWAP1 DUP2 MSTORE PUSH1 0x20 ADD PUSH0 KECCAK256 SLOAD SWAP1 POP SWAP1 JUMP JUMPDEST DUP1 PUSH1 0x1 PUSH0 CALLER PUSH20 0xFFFFFFFFFFFFFFFFFFFFFFFFFFFFFFFFFFFFFFFF AND PUSH20 0xFFFFFFFFFFFFFFFFFFFFFFFFFFFFFFFFFFFFFFFF AND DUP2 MSTORE PUSH1 0x20 ADD SWAP1 DUP2 MSTORE PUSH1 0x20 ADD PUSH0 KECCAK256 SLOAD LT ISZERO PUSH2 0x490 JUMPI PUSH1 0x40 MLOAD PUSH32 0x8C379A000000000000000000000000000000000000000000000000000000000 DUP2 MSTORE PUSH1 0x4 ADD PUSH2 0x487 SWAP1 PUSH2 0xA78 JUMP JUMPDEST PUSH1 0x40 MLOAD DUP1 SWAP2 SUB SWAP1 REVERT JUMPDEST PUSH0 PUSH20 0xFFFFFFFFFFFFFFFFFFFFFFFFFFFFFFFFFFFFFFFF AND DUP3 PUSH20 0xFFFFFFFFFFFFFFFFFFFFFFFFFFFFFFFFFFFFFFFF AND SUB PUSH2 0x4FE JUMPI PUSH1 0x40 MLOAD PUSH32 0x8C379A000000000000000000000000000000000000000000000000000000000 DUP2 MSTORE PUSH1 0x4 ADD PUSH2 0x4F5 SWAP1 PUSH2 0xAE0 JUMP JUMPDEST PUSH1 0x40 MLOAD DUP1 SWAP2 SUB SWAP1 REVERT JUMPDEST DUP1 PUSH1 0x1 PUSH0 CALLER PUSH20 0xFFFFFFFFFFFFFFFFFFFFFFFFFFFFFFFFFFFFFFFF AND PUSH20 0xFFFFFFFFFFFFFFFFFFFFFFFFFFFFFFFFFFFFFFFF AND DUP2 MSTORE PUSH1 0x20 ADD SWAP1 DUP2 MSTORE PUSH1 0x20 ADD PUSH0 KECCAK256 PUSH0 DUP3 DUP3 SLOAD PUSH2 0x54A SWAP2 SWAP1 PUSH2 0x952 JUMP JUMPDEST SWAP3 POP POP DUP2 SWAP1 SSTORE POP DUP1 PUSH1 0x1 PUSH0 DUP5 PUSH20 0xFFFFFFFFFFFFFFFFFFFFFFFFFFFFFFFFFFFFFFFF AND PUSH20 0xFFFFFFFFFFFFFFFFFFFFFFFFFFFFFFFFFFFFFFFF AND DUP2 MSTORE PUSH1 0x20 ADD SWAP1 DUP2 MSTORE PUSH1 0x20 ADD PUSH0 KECCAK256 PUSH0 DUP3 DUP3 SLOAD PUSH2 0x59D SWAP2 SWAP1 PUSH2 0x84F JUMP JUMPDEST SWAP3 POP POP DUP2 SWAP1 SSTORE POP DUP2 PUSH20 0xFFFFFFFFFFFFFFFFFFFFFFFFFFFFFFFFFFFFFFFF AND CALLER PUSH20 0xFFFFFFFFFFFFFFFFFFFFFFFFFFFFFFFFFFFFFFFF AND PUSH32 0xDDF252AD1BE2C89B69C2B068FC378DAA952BA7F163C4A11628F55A4DF523B3EF DUP4 PUSH1 0x40 MLOAD PUSH2 0x601 SWAP2 SWAP1 PUSH2 0x6CE JUMP JUMPDEST PUSH1 0x40 MLOAD DUP1 SWAP2 SUB SWAP1 LOG3 POP POP JUMP JUMPDEST PUSH2 0x615 PUSH2 0x126 JUMP JUMPDEST JUMP JUMPDEST PUSH0 PUSH1 0x1 PUSH0 DUP4 PUSH20 0xFFFFFFFFFFFFFFFFFFFFFFFFFFFFFFFFFFFFFFFF AND PUSH20 0xFFFFFFFFFFFFFFFFFFFFFFFFFFFFFFFFFFFFFFFF AND DUP2 MSTORE PUSH1 0x20 ADD SWAP1 DUP2 MSTORE PUSH1 0x20 ADD PUSH0 KECCAK256 SLOAD SWAP1 POP SWAP2 SWAP1 POP JUMP JUMPDEST PUSH0 PUSH0 REVERT JUMPDEST PUSH0 DUP2 SWAP1 POP SWAP2 SWAP1 POP JUMP JUMPDEST PUSH2 0x673 DUP2 PUSH2 0x661 JUMP JUMPDEST DUP2 EQ PUSH2 0x67D JUMPI PUSH0 PUSH0 REVERT JUMPDEST POP JUMP JUMPDEST PUSH0 DUP2 CALLDATALOAD SWAP1 POP PUSH2 0x68E DUP2 PUSH2 0x66A JUMP JUMPDEST SWAP3 SWAP2 POP POP JUMP JUMPDEST PUSH0 PUSH1 0x20 DUP3 DUP5 SUB SLT ISZERO PUSH2 0x6A9 JUMPI PUSH2 0x6A8 PUSH2 0x65D JUMP JUMPDEST JUMPDEST PUSH0 PUSH2 0x6B6 DUP5 DUP3 DUP6 ADD PUSH2 0x680 JUMP JUMPDEST SWAP2 POP POP SWAP3 SWAP2 POP POP JUMP JUMPDEST PUSH2 0x6C8 DUP2 PUSH2 0x661 JUMP JUMPDEST DUP3 MSTORE POP POP JUMP JUMPDEST PUSH0 PUSH1 0x20 DUP3 ADD SWAP1 POP PUSH2 0x6E1 PUSH0 DUP4 ADD DUP5 PUSH2 0x6BF JUMP JUMPDEST SWAP3 SWAP2 POP POP JUMP JUMPDEST PUSH0 PUSH20 0xFFFFFFFFFFFFFFFFFFFFFFFFFFFFFFFFFFFFFFFF DUP3 AND SWAP1 POP SWAP2 SWAP1 POP JUMP JUMPDEST PUSH0 PUSH2 0x710 DUP3 PUSH2 0x6E7 JUMP JUMPDEST SWAP1 POP SWAP2 SWAP1 POP JUMP JUMPDEST PUSH2 0x720 DUP2 PUSH2 0x706 JUMP JUMPDEST DUP2 EQ PUSH2 0x72A JUMPI PUSH0 PUSH0 REVERT JUMPDEST POP JUMP JUMPDEST PUSH0 DUP2 CALLDATALOAD SWAP1 POP PUSH2 0x73B DUP2 PUSH2 0x717 JUMP JUMPDEST SWAP3 SWAP2 POP POP JUMP JUMPDEST PUSH0 PUSH0 PUSH1 0x40 DUP4 DUP6 SUB SLT ISZERO PUSH2 0x757 JUMPI PUSH2 0x756 PUSH2 0x65D JUMP JUMPDEST JUMPDEST PUSH0 PUSH2 0x764 DUP6 DUP3 DUP7 ADD PUSH2 0x72D JUMP JUMPDEST SWAP3 POP POP PUSH1 0x20 PUSH2 0x775 DUP6 DUP3 DUP7 ADD PUSH2 0x680 JUMP JUMPDEST SWAP2 POP POP SWAP3 POP SWAP3 SWAP1 POP JUMP JUMPDEST PUSH0 PUSH1 0x20 DUP3 DUP5 SUB SLT ISZERO PUSH2 0x794 JUMPI PUSH2 0x793 PUSH2 0x65D JUMP JUMPDEST JUMPDEST PUSH0 PUSH2 0x7A1 DUP5 DUP3 DUP6 ADD PUSH2 0x72D JUMP JUMPDEST SWAP2 POP POP SWAP3 SWAP2 POP POP JUMP JUMPDEST PUSH0 DUP3 DUP3 MSTORE PUSH1 0x20 DUP3 ADD SWAP1 POP SWAP3 SWAP2 POP POP JUMP JUMPDEST PUSH32 0x4A756D6C6168204465706F204861727573204C65626968204461726920300000 PUSH0 DUP3 ADD MSTORE POP JUMP JUMPDEST PUSH0 PUSH2 0x7EE PUSH1 0x1E DUP4 PUSH2 0x7AA JUMP JUMPDEST SWAP2 POP PUSH2 0x7F9 DUP3 PUSH2 0x7BA JUMP JUMPDEST PUSH1 0x20 DUP3 ADD SWAP1 POP SWAP2 SWAP1 POP JUMP JUMPDEST PUSH0 PUSH1 0x20 DUP3 ADD SWAP1 POP DUP2 DUP2 SUB PUSH0 DUP4 ADD MSTORE PUSH2 0x81B DUP2 PUSH2 0x7E2 JUMP JUMPDEST SWAP1 POP SWAP2 SWAP1 POP JUMP JUMPDEST PUSH32 0x4E487B7100000000000000000000000000000000000000000000000000000000 PUSH0 MSTORE PUSH1 0x11 PUSH1 0x4 MSTORE PUSH1 0x24 PUSH0 REVERT JUMPDEST PUSH0 PUSH2 0x859 DUP3 PUSH2 0x661 JUMP JUMPDEST SWAP2 POP PUSH2 0x864 DUP4 PUSH2 0x661 JUMP JUMPDEST SWAP3 POP DUP3 DUP3 ADD SWAP1 POP DUP1 DUP3 GT ISZERO PUSH2 0x87C JUMPI PUSH2 0x87B PUSH2 0x822 JUMP JUMPDEST JUMPDEST SWAP3 SWAP2 POP POP JUMP JUMPDEST PUSH32 0x50656E6172696B616E20746964616B2062697361203000000000000000000000 PUSH0 DUP3 ADD MSTORE POP JUMP JUMPDEST PUSH0 PUSH2 0x8B6 PUSH1 0x16 DUP4 PUSH2 0x7AA JUMP JUMPDEST SWAP2 POP PUSH2 0x8C1 DUP3 PUSH2 0x882 JUMP JUMPDEST PUSH1 0x20 DUP3 ADD SWAP1 POP SWAP2 SWAP1 POP JUMP JUMPDEST PUSH0 PUSH1 0x20 DUP3 ADD SWAP1 POP DUP2 DUP2 SUB PUSH0 DUP4 ADD MSTORE PUSH2 0x8E3 DUP2 PUSH2 0x8AA JUMP JUMPDEST SWAP1 POP SWAP2 SWAP1 POP JUMP JUMPDEST PUSH32 0x53616C646F20746964616B2063756B7570000000000000000000000000000000 PUSH0 DUP3 ADD MSTORE POP JUMP JUMPDEST PUSH0 PUSH2 0x91E PUSH1 0x11 DUP4 PUSH2 0x7AA JUMP JUMPDEST SWAP2 POP PUSH2 0x929 DUP3 PUSH2 0x8EA JUMP JUMPDEST PUSH1 0x20 DUP3 ADD SWAP1 POP SWAP2 SWAP1 POP JUMP JUMPDEST PUSH0 PUSH1 0x20 DUP3 ADD SWAP1 POP DUP2 DUP2 SUB PUSH0 DUP4 ADD MSTORE PUSH2 0x94B DUP2 PUSH2 0x912 JUMP JUMPDEST SWAP1 POP SWAP2 SWAP1 POP JUMP JUMPDEST PUSH0 PUSH2 0x95C DUP3 PUSH2 0x661 JUMP JUMPDEST SWAP2 POP PUSH2 0x967 DUP4 PUSH2 0x661 JUMP JUMPDEST SWAP3 POP DUP3 DUP3 SUB SWAP1 POP DUP2 DUP2 GT ISZERO PUSH2 0x97F JUMPI PUSH2 0x97E PUSH2 0x822 JUMP JUMPDEST JUMPDEST SWAP3 SWAP2 POP POP JUMP JUMPDEST PUSH0 DUP2 SWAP1 POP SWAP3 SWAP2 POP POP JUMP JUMPDEST POP JUMP JUMPDEST PUSH0 PUSH2 0x99D PUSH0 DUP4 PUSH2 0x985 JUMP JUMPDEST SWAP2 POP PUSH2 0x9A8 DUP3 PUSH2 0x98F JUMP JUMPDEST PUSH0 DUP3 ADD SWAP1 POP SWAP2 SWAP1 POP JUMP JUMPDEST PUSH0 PUSH2 0x9BC DUP3 PUSH2 0x992 JUMP JUMPDEST SWAP2 POP DUP2 SWAP1 POP SWAP2 SWAP1 POP JUMP JUMPDEST PUSH32 0x7472616E7366657220676167616C000000000000000000000000000000000000 PUSH0 DUP3 ADD MSTORE POP JUMP JUMPDEST PUSH0 PUSH2 0x9FA PUSH1 0xE DUP4 PUSH2 0x7AA JUMP JUMPDEST SWAP2 POP PUSH2 0xA05 DUP3 PUSH2 0x9C6 JUMP JUMPDEST PUSH1 0x20 DUP3 ADD SWAP1 POP SWAP2 SWAP1 POP JUMP JUMPDEST PUSH0 PUSH1 0x20 DUP3 ADD SWAP1 POP DUP2 DUP2 SUB PUSH0 DUP4 ADD MSTORE PUSH2 0xA27 DUP2 PUSH2 0x9EE JUMP JUMPDEST SWAP1 POP SWAP2 SWAP1 POP JUMP JUMPDEST PUSH32 0x73616C646F20746964616B2063756B7570000000000000000000000000000000 PUSH0 DUP3 ADD MSTORE POP JUMP JUMPDEST PUSH0 PUSH2 0xA62 PUSH1 0x11 DUP4 PUSH2 0x7AA JUMP JUMPDEST SWAP2 POP PUSH2 0xA6D DUP3 PUSH2 0xA2E JUMP JUMPDEST PUSH1 0x20 DUP3 ADD SWAP1 POP SWAP2 SWAP1 POP JUMP JUMPDEST PUSH0 PUSH1 0x20 DUP3 ADD SWAP1 POP DUP2 DUP2 SUB PUSH0 DUP4 ADD MSTORE PUSH2 0xA8F DUP2 PUSH2 0xA56 JUMP JUMPDEST SWAP1 POP SWAP2 SWAP1 POP JUMP JUMPDEST PUSH32 0x61646472657373207A65726F0000000000000000000000000000000000000000 PUSH0 DUP3 ADD MSTORE POP JUMP JUMPDEST PUSH0 PUSH2 0xACA PUSH1 0xC DUP4 PUSH2 0x7AA JUMP JUMPDEST SWAP2 POP PUSH2 0xAD5 DUP3 PUSH2 0xA96 JUMP JUMPDEST PUSH1 0x20 DUP3 ADD SWAP1 POP SWAP2 SWAP1 POP JUMP JUMPDEST PUSH0 PUSH1 0x20 DUP3 ADD SWAP1 POP DUP2 DUP2 SUB PUSH0 DUP4 ADD MSTORE PUSH2 0xAF7 DUP2 PUSH2 0xABE JUMP JUMPDEST SWAP1 POP SWAP2 SWAP1 POP JUMP INVALID LOG2 PUSH5 0x6970667358 0x22 SLT KECCAK256 MSTORE EXTCODECOPY 0x2A PUSH20 0x11E8F2E28C5D6CAF5465DAD90B110E3D2BDBB68E 0xE9 PREVRANDAO GT 0xD6 MCOPY SWAP4 PUSH25 0x9B64736F6C634300081F003300000000000000000000000000 "
				},
				"gasEstimates": {
					"creation": {
						"codeDepositCost": "573600",
						"executionCost": "24868",
						"totalCost": "598468"
					},
					"external": {
						"": "infinite",
						"deposit()": "infinite",
						"getBalance(address)": "2895",
						"getMyBalance()": "2519",
						"transfer(address,uint256)": "infinite",
						"withdraw(uint256)": "infinite"
					},
					"internal": {
						"_deposit()": "infinite"
					}
				},
				"methodIdentifiers": {
					"deposit()": "d0e30db0",
					"getBalance(address)": "f8b2cb4f",
					"getMyBalance()": "4c738909",
					"transfer(address,uint256)": "a9059cbb",
					"withdraw(uint256)": "2e1a7d4d"
				}
			},
			"storageLayout": {
				"storage": [
					{
						"astId": 3,
						"contract": "contracts/belajar/belajar7.sol:simpleWallet",
						"label": "owner",
						"offset": 0,
						"slot": "0",
						"type": "t_address"
					},
					{
						"astId": 16,
						"contract": "contracts/belajar/belajar7.sol:simpleWallet",
						"label": "balances",
						"offset": 0,
						"slot": "1",
						"type": "t_mapping(t_address,t_uint256)"
					}
				],
				"types": {
					"t_address": {
						"encoding": "inplace",
						"label": "address",
						"numberOfBytes": "20"
					},
					"t_mapping(t_address,t_uint256)": {
						"encoding": "mapping",
						"key": "t_address",
						"label": "mapping(address => uint256)",
						"numberOfBytes": "32",
						"value": "t_uint256"
					},
					"t_uint256": {
						"encoding": "inplace",
						"label": "uint256",
						"numberOfBytes": "32"
					}
				}
			},
			"userdoc": {
				"kind": "user",
				"methods": {},
				"version": 1
			}
		}
	}
}